{
  "contractName": "ProxyICO",
  "abi": [
    {
      "constant": false,
      "inputs": [
        {
          "name": "_index",
          "type": "uint256"
        }
      ],
      "name": "withdraw",
      "outputs": [],
      "payable": false,
      "stateMutability": "nonpayable",
      "type": "function"
    },
    {
      "constant": true,
      "inputs": [],
      "name": "getProjectCount",
      "outputs": [
        {
          "name": "",
          "type": "uint256"
        }
      ],
      "payable": false,
      "stateMutability": "view",
      "type": "function"
    },
    {
      "constant": true,
      "inputs": [
        {
          "name": "",
          "type": "uint256"
        }
      ],
      "name": "projectNames",
      "outputs": [
        {
          "name": "",
          "type": "string"
        }
      ],
      "payable": false,
      "stateMutability": "view",
      "type": "function"
    },
    {
      "constant": true,
      "inputs": [
        {
          "name": "_name",
          "type": "string"
        },
        {
          "name": "_tokenAddr",
          "type": "address"
        },
        {
          "name": "_ratio",
          "type": "uint256"
        }
      ],
      "name": "owner",
      "outputs": [
        {
          "name": "",
          "type": "address"
        }
      ],
      "payable": false,
      "stateMutability": "view",
      "type": "function"
    },
    {
      "constant": false,
      "inputs": [
        {
          "name": "_name",
          "type": "string"
        },
        {
          "name": "_tokenAddr",
          "type": "address"
        },
        {
          "name": "_ratio",
          "type": "uint256"
        },
        {
          "name": "_least",
          "type": "uint256"
        },
        {
          "name": "_limit",
          "type": "uint256"
        }
      ],
      "name": "addProject",
      "outputs": [
        {
          "name": "",
          "type": "bool"
        }
      ],
      "payable": false,
      "stateMutability": "nonpayable",
      "type": "function"
    },
    {
      "constant": true,
      "inputs": [
        {
          "name": "_index",
          "type": "uint256"
        }
      ],
      "name": "isUnlock",
      "outputs": [
        {
          "name": "",
          "type": "bool"
        }
      ],
      "payable": false,
      "stateMutability": "view",
      "type": "function"
    },
    {
      "constant": false,
      "inputs": [
        {
          "name": "_index",
          "type": "uint256"
        }
      ],
      "name": "investment",
      "outputs": [],
      "payable": true,
      "stateMutability": "payable",
      "type": "function"
    },
    {
      "constant": false,
      "inputs": [
        {
          "name": "newOwner",
          "type": "address"
        }
      ],
      "name": "transferOwnership",
      "outputs": [],
      "payable": false,
      "stateMutability": "nonpayable",
      "type": "function"
    },
    {
      "constant": true,
      "inputs": [
        {
          "name": "_index",
          "type": "uint256"
        }
      ],
      "name": "getProjectInfo",
      "outputs": [
        {
          "name": "index",
          "type": "uint256"
        },
        {
          "name": "name",
          "type": "string"
        },
        {
          "name": "contractAddr",
          "type": "address"
        },
        {
          "name": "ratio",
          "type": "uint256"
        },
        {
          "name": "least",
          "type": "uint256"
        },
        {
          "name": "limit",
          "type": "uint256"
        },
        {
          "name": "investVolume",
          "type": "uint256"
        }
      ],
      "payable": false,
      "stateMutability": "view",
      "type": "function"
    },
    {
      "anonymous": false,
      "inputs": [
        {
          "indexed": true,
          "name": "previousOwner",
          "type": "address"
        },
        {
          "indexed": true,
          "name": "newOwner",
          "type": "address"
        }
      ],
      "name": "OwnershipTransferred",
      "type": "event"
    }
  ],
  "bytecode": "0x6060604052336000806101000a81548173ffffffffffffffffffffffffffffffffffffffff021916908373ffffffffffffffffffffffffffffffffffffffff160217905550611269806100536000396000f300606060405260043610610099576000357c0100000000000000000000000000000000000000000000000000000000900463ffffffff1680632e1a7d4d1461009e5780633bcff3b0146100c15780633d1819f7146100ea5780638da5cb5b1461018657806393be60f4146101db578063d63ba50d1461028a578063e4d4c3c0146102c5578063f2fde38b146102dd578063fabf596814610316575b600080fd5b34156100a957600080fd5b6100bf6004808035906020019091905050610408565b005b34156100cc57600080fd5b6100d4610720565b6040518082815260200191505060405180910390f35b34156100f557600080fd5b61010b600480803590602001909190505061072d565b6040518080602001828103825283818151815260200191508051906020019080838360005b8381101561014b578082015181840152602081019050610130565b50505050905090810190601f1680156101785780820380516001836020036101000a031916815260200191505b509250505060405180910390f35b341561019157600080fd5b6101996107e9565b604051808273ffffffffffffffffffffffffffffffffffffffff1673ffffffffffffffffffffffffffffffffffffffff16815260200191505060405180910390f35b34156101e657600080fd5b610270600480803590602001908201803590602001908080601f0160208091040260200160405190810160405280939291908181526020018383808284378201915050505050509190803573ffffffffffffffffffffffffffffffffffffffff1690602001909190803590602001909190803590602001909190803590602001909190505061080e565b604051808215151515815260200191505060405180910390f35b341561029557600080fd5b6102ab6004808035906020019091905050610973565b604051808215151515815260200191505060405180910390f35b6102db6004808035906020019091905050610a1e565b005b34156102e857600080fd5b610314600480803573ffffffffffffffffffffffffffffffffffffffff16906020019091905050610c2a565b005b341561032157600080fd5b6103376004808035906020019091905050610d7f565b60405180888152602001806020018773ffffffffffffffffffffffffffffffffffffffff1673ffffffffffffffffffffffffffffffffffffffff168152602001868152602001858152602001848152602001838152602001828103825288818151815260200191508051906020019080838360005b838110156103c75780820151818401526020810190506103ac565b50505050905090810190601f1680156103f45780820380516001836020036101000a031916815260200191505b509850505050505050505060405180910390f35b600080600080600085600160028281548110151561042257fe5b9060005260206000209060070201600601541415151561044157600080fd5b60028781548110151561045057fe5b906000526020600020906007020195508560010160009054906101000a900473ffffffffffffffffffffffffffffffffffffffff16945084935060008573ffffffffffffffffffffffffffffffffffffffff16141515156104ad57fe5b6000600160008773ffffffffffffffffffffffffffffffffffffffff1673ffffffffffffffffffffffffffffffffffffffff16815260200190815260200160002060003373ffffffffffffffffffffffffffffffffffffffff1673ffffffffffffffffffffffffffffffffffffffff168152602001908152602001600020541415151561053657fe5b600160008673ffffffffffffffffffffffffffffffffffffffff1673ffffffffffffffffffffffffffffffffffffffff16815260200190815260200160002060003373ffffffffffffffffffffffffffffffffffffffff1673ffffffffffffffffffffffffffffffffffffffff1681526020019081526020016000205492506105cc866002015484610ed490919063ffffffff16565b91506000600160008773ffffffffffffffffffffffffffffffffffffffff1673ffffffffffffffffffffffffffffffffffffffff16815260200190815260200160002060003373ffffffffffffffffffffffffffffffffffffffff1673ffffffffffffffffffffffffffffffffffffffff168152602001908152602001600020819055508373ffffffffffffffffffffffffffffffffffffffff1663a9059cbb33846000604051602001526040518363ffffffff167c0100000000000000000000000000000000000000000000000000000000028152600401808373ffffffffffffffffffffffffffffffffffffffff1673ffffffffffffffffffffffffffffffffffffffff16815260200182815260200192505050602060405180830381600087803b15156106fb57600080fd5b6102c65a03f1151561070c57600080fd5b505050604051805190505050505050505050565b6000600380549050905090565b60038181548110151561073c57fe5b90600052602060002090016000915090508054600181600116156101000203166002900480601f0160208091040260200160405190810160405280929190818152602001828054600181600116156101000203166002900480156107e15780601f106107b6576101008083540402835291602001916107e1565b820191906000526020600020905b8154815290600101906020018083116107c457829003601f168201915b505050505081565b6000809054906101000a900473ffffffffffffffffffffffffffffffffffffffff1681565b6000610818610f46565b60e0604051908101604052808881526020018773ffffffffffffffffffffffffffffffffffffffff16815260200186815260200185815260200184815260200160008152602001600081525090506002805480600101828161087a9190610fa0565b9160005260206000209060070201600083909190915060008201518160000190805190602001906108ac929190610fd2565b5060208201518160010160006101000a81548173ffffffffffffffffffffffffffffffffffffffff021916908373ffffffffffffffffffffffffffffffffffffffff16021790555060408201518160020155606082015181600301556080820151816004015560a0820151816005015560c082015181600601555050506003805480600101828161093d9190611052565b91600052602060002090016000899091909150908051906020019061096392919061107e565b5050600191505095945050505050565b60008082600160028281548110151561098857fe5b906000526020600020906007020160060154141515156109a757600080fd5b6002848154811015156109b657fe5b9060005260206000209060070201915060008260010160009054906101000a900473ffffffffffffffffffffffffffffffffffffffff1673ffffffffffffffffffffffffffffffffffffffff161415610a125760009250610a17565b600192505b5050919050565b6000806000836001600282815481101515610a3557fe5b90600052602060002090600702016006015414151515610a5457600080fd5b8434600282815481101515610a6557fe5b90600052602060002090600702016003015411151515610a8457600080fd5b600286815481101515610a9357fe5b9060005260206000209060070201945034935060009250610ac585600501548660040154610f0f90919063ffffffff16565b841115610aff57610ae785600501548660040154610f0f90919063ffffffff16565b9350610afc8434610f0f90919063ffffffff16565b92505b83600160008760010160009054906101000a900473ffffffffffffffffffffffffffffffffffffffff1673ffffffffffffffffffffffffffffffffffffffff1673ffffffffffffffffffffffffffffffffffffffff16815260200190815260200160002060003373ffffffffffffffffffffffffffffffffffffffff1673ffffffffffffffffffffffffffffffffffffffff16815260200190815260200160002081905550610bd784600288815481101515610bb757fe5b906000526020600020906007020160050154610f2890919063ffffffff16565b506000831115610c22573373ffffffffffffffffffffffffffffffffffffffff166108fc849081150290604051600060405180830381858888f193505050501515610c2157600080fd5b5b505050505050565b6000809054906101000a900473ffffffffffffffffffffffffffffffffffffffff1673ffffffffffffffffffffffffffffffffffffffff163373ffffffffffffffffffffffffffffffffffffffff16141515610c8557600080fd5b600073ffffffffffffffffffffffffffffffffffffffff168173ffffffffffffffffffffffffffffffffffffffff1614151515610cc157600080fd5b8073ffffffffffffffffffffffffffffffffffffffff166000809054906101000a900473ffffffffffffffffffffffffffffffffffffffff1673ffffffffffffffffffffffffffffffffffffffff167f8be0079c531659141344cd1fd0a4f28419497f9722a3daafe3b4186f6b6457e060405160405180910390a3806000806101000a81548173ffffffffffffffffffffffffffffffffffffffff021916908373ffffffffffffffffffffffffffffffffffffffff16021790555050565b6000610d896110fe565b600080600080600080886001600282815481101515610da457fe5b90600052602060002090600702016006015414151515610dc357600080fd5b60028a815481101515610dd257fe5b90600052602060002090600702019150899850816000018054600181600116156101000203166002900480601f016020809104026020016040519081016040528092919081815260200182805460018160011615610100020316600290048015610e7d5780601f10610e5257610100808354040283529160200191610e7d565b820191906000526020600020905b815481529060010190602001808311610e6057829003601f168201915b505050505097508160010160009054906101000a900473ffffffffffffffffffffffffffffffffffffffff169650816002015495508160030154945081600401549350816005015492505050919395979092949650565b6000806000841415610ee95760009150610f08565b8284029050828482811515610efa57fe5b04141515610f0457fe5b8091505b5092915050565b6000828211151515610f1d57fe5b818303905092915050565b6000808284019050838110151515610f3c57fe5b8091505092915050565b60e060405190810160405280610f5a611112565b8152602001600073ffffffffffffffffffffffffffffffffffffffff16815260200160008152602001600081526020016000815260200160008152602001600081525090565b815481835581811511610fcd57600702816007028360005260206000209182019101610fcc9190611126565b5b505050565b828054600181600116156101000203166002900490600052602060002090601f016020900481019282601f1061101357805160ff1916838001178555611041565b82800160010185558215611041579182015b82811115611040578251825591602001919060010190611025565b5b50905061104e91906111a4565b5090565b8154818355818115116110795781836000526020600020918201910161107891906111c9565b5b505050565b828054600181600116156101000203166002900490600052602060002090601f016020900481019282601f106110bf57805160ff19168380011785556110ed565b828001600101855582156110ed579182015b828111156110ec5782518255916020019190600101906110d1565b5b5090506110fa91906111a4565b5090565b602060405190810160405280600081525090565b602060405190810160405280600081525090565b6111a191905b8082111561119d576000808201600061114591906111f5565b6001820160006101000a81549073ffffffffffffffffffffffffffffffffffffffff0219169055600282016000905560038201600090556004820160009055600582016000905560068201600090555060070161112c565b5090565b90565b6111c691905b808211156111c25760008160009055506001016111aa565b5090565b90565b6111f291905b808211156111ee57600081816111e591906111f5565b506001016111cf565b5090565b90565b50805460018160011615610100020316600290046000825580601f1061121b575061123a565b601f01602090049060005260206000209081019061123991906111a4565b5b505600a165627a7a723058205651612e9384e362e3762bc6cc52cdafc5f317142f2707c62ef965aab5b1e2440029",
  "source": "pragma solidity ^0.4.17;\n\nimport 'zeppelin-solidity/contracts/ownership/Ownable.sol';\nimport 'zeppelin-solidity/contracts/math/SafeMath.sol';\nimport 'zeppelin-solidity/contracts/token/ERC20.sol';\n\n/**\n * 单代投责任人合约\n */\ncontract ProxyICO is Ownable {\n\n\tusing SafeMath for uint;\n\n\tstruct ICORule {\n\t\tstring \tname;\t\t\t// 代币名称\n\t\taddress contractAddr;\t// 代币合约地址\n\t\tuint \tratio;\t\t\t// 比例\n\t\tuint \tleast;\t\t\t// 最小值\n\t\tuint \tlimit;\t\t\t// 限量\n\t\tuint \tinvestVolume;\t// 已投资量\n\t\tuint \tflag;\t\t\t// 是否存在\n\t}\n\n\tmapping(address => mapping(address => uint)) investors;\n\n\tICORule[] ICOPools;\t\t// 项目池子\n\n\tstring[] public projectNames;\t// 项目名存储\n\n\t// event AddProject(address indexed owner, string indexed name);\n\n\t/**\n\t * 是否存在指定ICO\n\t */\n\tmodifier ICOExists(uint _index) { \n\t\trequire(ICOPools[_index].flag != 1);\n\t\t_;\n\t}\n\n\t/**\n\t * 大于最小值\n\t */\n\tmodifier gtLeast(uint _index) { \n\t\trequire(ICOPools[_index].least <= msg.value);\n\t\t_;\n\t}\n\n\t/**\n\t * 获取项目数量\n\t */\n\tfunction getProjectCount() public view returns(uint) {\n\t\treturn projectNames.length;\n\t}\n\n\t/**\n\t * 获取项目信息\n\t */\n\tfunction getProjectInfo(uint256 _index) ICOExists(_index) public view returns(uint index, string name, address contractAddr, uint ratio, uint least, uint limit, uint investVolume) {\n\t\tvar icoRule \t= ICOPools[_index];\n\t\tindex \t\t\t= _index;\n\t\tname \t\t\t= icoRule.name;\n\t\tcontractAddr \t= icoRule.contractAddr;\n\t\tratio \t\t\t= icoRule.ratio;\n\t\tleast \t\t\t= icoRule.least;\n\t\tlimit \t\t\t= icoRule.limit;\n\t\tinvestVolume \t= icoRule.investVolume;\n\t}\n\n\t/**\n\t * 添加项目\n\t */\n\tfunction addProject(string _name, address _tokenAddr, uint _ratio, uint _least, uint _limit) public returns(bool) {\n\t\t// AddProject(msg.sender, name);\n\t\tvar temp = ICORule(_name, _tokenAddr, _ratio, _least, _limit, 0, 0);\n\t\tICOPools.push(temp);\n\t\tprojectNames.push(_name);\n\t\treturn true;\n\t}\n\n\t/**\n\t * 投资接口\n\t */\n\tfunction investment(uint _index) payable public ICOExists(_index) gtLeast(_index) {\n\t\t\n\t\tvar icoRule = ICOPools[_index];\n\n\t\tvar investQuota = msg.value;\n\t\tuint refundQueta = 0;\n\t\t\n\t\t// 当额度不足\n\t\tif (investQuota > icoRule.limit.sub(icoRule.investVolume)) {\n\t\t\t// 获取能投资的额度\n\t\t\tinvestQuota = icoRule.limit.sub(icoRule.investVolume);\n\t\t\t// 退款额度\n\t\t\trefundQueta = msg.value.sub(investQuota);\n\t\t}\n\n\t\tinvestors[icoRule.contractAddr][msg.sender] = investQuota;\n\t\tICOPools[_index].investVolume.add(investQuota);\n\n\t\tif (refundQueta > 0) {\t// 退款\n\t\t\tmsg.sender.transfer(refundQueta);\n\t\t}\n\t}\n\n\t/**\n\t * 获取某ICO是否可领取代币\n\t */\n\tfunction isUnlock(uint _index) public view ICOExists(_index) returns(bool) {\n\t\tvar icoRule = ICOPools[_index];\n\t\tif (icoRule.contractAddr == 0x0) {\n\t\t\treturn false;\n\t\t} else {\n\t\t\treturn true;\n\t\t}\n\t}\n\n\t/**\n\t * 提币\n\t */\n\tfunction withdraw(uint _index) public ICOExists(_index) {\n\n\t\tvar icoRule = ICOPools[_index];\n\t\tvar contractAddr = icoRule.contractAddr;\n\n\t\tERC20 token = ERC20(contractAddr);\n\n\t\t// 判断是否已经设置了代币合约地址\n\t\tassert(contractAddr != 0x0);\t\n\n\t\t// 判断是否投资该ICO\n\t\tassert(investors[contractAddr][msg.sender] != 0);\n\n\t\t// 投资额度\n\t\tvar investQuota = investors[contractAddr][msg.sender];\n\t\tvar tokenNum    = investQuota.mul(icoRule.ratio);\n\n\t\t// 减掉代币\n\t\tinvestors[contractAddr][msg.sender] = 0;\n\n\t\t// 转移代币\n\t\ttoken.transfer(msg.sender, tokenNum);\n\t}\n}\n\n\n\n\n\n\n\n\n\n\n\n\n\n\n\n\n",
  "sourcePath": "/Users/2liang/Code/blockchain/Code/ProxyICO/contracts/ProxyICO.sol",
  "compiler": {
    "name": "solc",
    "version": "0.4.18+commit.9cf6e910.Emscripten.clang"
  },
  "schemaVersion": "1.0.1",
  "updatedAt": "2018-01-18T08:52:17.738Z"
}