{
  "contractName": "ProxyICO",
  "abi": [
    {
      "constant": true,
      "inputs": [],
      "name": "getProjectCount",
      "outputs": [
        {
          "name": "",
          "type": "uint256"
        }
      ],
      "payable": false,
      "stateMutability": "view",
      "type": "function"
    },
    {
      "constant": true,
      "inputs": [
        {
          "name": "",
          "type": "uint256"
        }
      ],
      "name": "projectNames",
      "outputs": [
        {
          "name": "",
          "type": "string"
        }
      ],
      "payable": false,
      "stateMutability": "view",
      "type": "function"
    },
    {
      "constant": false,
      "inputs": [
        {
          "name": "_name",
          "type": "string"
        },
        {
          "name": "_tokenAddr",
          "type": "address"
        },
        {
          "name": "_ratio",
          "type": "uint256"
        }
      ],
      "name": "addProject",
      "outputs": [],
      "payable": false,
      "stateMutability": "nonpayable",
      "type": "function"
    },
    {
      "constant": true,
      "inputs": [],
      "name": "owner",
      "outputs": [
        {
          "name": "",
          "type": "address"
        }
      ],
      "payable": false,
      "stateMutability": "view",
      "type": "function"
    },
    {
      "constant": false,
      "inputs": [
        {
          "name": "newOwner",
          "type": "address"
        }
      ],
      "name": "transferOwnership",
      "outputs": [],
      "payable": false,
      "stateMutability": "nonpayable",
      "type": "function"
    },
    {
      "constant": true,
      "inputs": [
        {
          "name": "_index",
          "type": "uint256"
        }
      ],
      "name": "getProjectInfo",
      "outputs": [
        {
          "name": "",
          "type": "string"
        },
        {
          "name": "",
          "type": "address"
        },
        {
          "name": "",
          "type": "uint256"
        }
      ],
      "payable": false,
      "stateMutability": "view",
      "type": "function"
    },
    {
      "anonymous": false,
      "inputs": [
        {
          "indexed": true,
          "name": "previousOwner",
          "type": "address"
        },
        {
          "indexed": true,
          "name": "newOwner",
          "type": "address"
        }
      ],
      "name": "OwnershipTransferred",
      "type": "event"
    }
  ],
  "bytecode": "0x6060604052336000806101000a81548173ffffffffffffffffffffffffffffffffffffffff021916908373ffffffffffffffffffffffffffffffffffffffff160217905550610a72806100536000396000f300606060405260043610610078576000357c0100000000000000000000000000000000000000000000000000000000900463ffffffff1680633bcff3b01461007d5780633d1819f7146100a65780638763ad1e146101425780638da5cb5b146101c7578063f2fde38b1461021c578063fabf596814610255575b600080fd5b341561008857600080fd5b61009061032b565b6040518082815260200191505060405180910390f35b34156100b157600080fd5b6100c76004808035906020019091905050610338565b6040518080602001828103825283818151815260200191508051906020019080838360005b838110156101075780820151818401526020810190506100ec565b50505050905090810190601f1680156101345780820380516001836020036101000a031916815260200191505b509250505060405180910390f35b341561014d57600080fd5b6101c5600480803590602001908201803590602001908080601f0160208091040260200160405190810160405280939291908181526020018383808284378201915050505050509190803573ffffffffffffffffffffffffffffffffffffffff169060200190919080359060200190919050506103f4565b005b34156101d257600080fd5b6101da61050d565b604051808273ffffffffffffffffffffffffffffffffffffffff1673ffffffffffffffffffffffffffffffffffffffff16815260200191505060405180910390f35b341561022757600080fd5b610253600480803573ffffffffffffffffffffffffffffffffffffffff16906020019091905050610532565b005b341561026057600080fd5b6102766004808035906020019091905050610687565b60405180806020018473ffffffffffffffffffffffffffffffffffffffff1673ffffffffffffffffffffffffffffffffffffffff168152602001838152602001828103825285818151815260200191508051906020019080838360005b838110156102ee5780820151818401526020810190506102d3565b50505050905090810190601f16801561031b5780820380516001836020036101000a031916815260200191505b5094505050505060405180910390f35b6000600280549050905090565b60028181548110151561034757fe5b90600052602060002090016000915090508054600181600116156101000203166002900480601f0160208091040260200160405190810160405280929190818152602001828054600181600116156101000203166002900480156103ec5780601f106103c1576101008083540402835291602001916103ec565b820191906000526020600020905b8154815290600101906020018083116103cf57829003601f168201915b505050505081565b6103fc61078b565b6060604051908101604052808581526020018473ffffffffffffffffffffffffffffffffffffffff1681526020018381525090506001805480600101828161044491906107c9565b9160005260206000209060030201600083909190915060008201518160000190805190602001906104769291906107fb565b5060208201518160010160006101000a81548173ffffffffffffffffffffffffffffffffffffffff021916908373ffffffffffffffffffffffffffffffffffffffff16021790555060408201518160020155505050600280548060010182816104df919061087b565b9160005260206000209001600086909190915090805190602001906105059291906108a7565b505050505050565b6000809054906101000a900473ffffffffffffffffffffffffffffffffffffffff1681565b6000809054906101000a900473ffffffffffffffffffffffffffffffffffffffff1673ffffffffffffffffffffffffffffffffffffffff163373ffffffffffffffffffffffffffffffffffffffff1614151561058d57600080fd5b600073ffffffffffffffffffffffffffffffffffffffff168173ffffffffffffffffffffffffffffffffffffffff16141515156105c957600080fd5b8073ffffffffffffffffffffffffffffffffffffffff166000809054906101000a900473ffffffffffffffffffffffffffffffffffffffff1673ffffffffffffffffffffffffffffffffffffffff167f8be0079c531659141344cd1fd0a4f28419497f9722a3daafe3b4186f6b6457e060405160405180910390a3806000806101000a81548173ffffffffffffffffffffffffffffffffffffffff021916908373ffffffffffffffffffffffffffffffffffffffff16021790555050565b61068f610927565b60008060006001858154811015156106a357fe5b90600052602060002090600302019050806000018160010160009054906101000a900473ffffffffffffffffffffffffffffffffffffffff168260020154828054600181600116156101000203166002900480601f0160208091040260200160405190810160405280929190818152602001828054600181600116156101000203166002900480156107765780601f1061074b57610100808354040283529160200191610776565b820191906000526020600020905b81548152906001019060200180831161075957829003601f168201915b50505050509250935093509350509193909250565b60606040519081016040528061079f61093b565b8152602001600073ffffffffffffffffffffffffffffffffffffffff168152602001600081525090565b8154818355818115116107f6576003028160030283600052602060002091820191016107f5919061094f565b5b505050565b828054600181600116156101000203166002900490600052602060002090601f016020900481019282601f1061083c57805160ff191683800117855561086a565b8280016001018555821561086a579182015b8281111561086957825182559160200191906001019061084e565b5b50905061087791906109ad565b5090565b8154818355818115116108a2578183600052602060002091820191016108a191906109d2565b5b505050565b828054600181600116156101000203166002900490600052602060002090601f016020900481019282601f106108e857805160ff1916838001178555610916565b82800160010185558215610916579182015b828111156109155782518255916020019190600101906108fa565b5b50905061092391906109ad565b5090565b602060405190810160405280600081525090565b602060405190810160405280600081525090565b6109aa91905b808211156109a6576000808201600061096e91906109fe565b6001820160006101000a81549073ffffffffffffffffffffffffffffffffffffffff0219169055600282016000905550600301610955565b5090565b90565b6109cf91905b808211156109cb5760008160009055506001016109b3565b5090565b90565b6109fb91905b808211156109f757600081816109ee91906109fe565b506001016109d8565b5090565b90565b50805460018160011615610100020316600290046000825580601f10610a245750610a43565b601f016020900490600052602060002090810190610a4291906109ad565b5b505600a165627a7a7230582051513bcfbf73972277ef49ec09f542bceaa4542fb3a4f85fb9686d28a9d79f820029",
  "source": "pragma solidity ^0.4.17;\n\nimport 'zeppelin-solidity/contracts/ownership/Ownable.sol';\n/**\n * 单代投责任人合约\n */\ncontract ProxyICO is Ownable {\n\n\tstruct ICORule {\n\t\tstring \tname;\t\t\t// 代币名称\n\t\taddress contractAddr;\t// 代币合约地址\n\t\tuint \tratio;\t\t\t// 比例\n\t}\n\n\tICORule[] ICOPools;\t\t// 项目池子\n\n\tstring[] public projectNames;\t// 项目名存储\n\n\t// event AddProject(address indexed owner, string indexed name);\n\n\t/**\n\t * 获取项目数量\n\t */\n\tfunction getProjectCount() public view returns(uint) {\n\t\treturn projectNames.length;\n\t}\n\n\t/**\n\t * 获取项目信息\n\t */\n\tfunction getProjectInfo(uint256 _index) public view returns(string, address, uint) {\n\t\tvar icoRule = ICOPools[_index];\n\t\treturn (icoRule.name, icoRule.contractAddr, icoRule.ratio);\n\t}\n\n\t/**\n\t * 添加项目\n\t */\n\tfunction addProject(string _name, address _tokenAddr, uint _ratio) public {\n\t\t// AddProject(msg.sender, name);\n\t\tvar temp = ICORule(_name, _tokenAddr, _ratio);\n\t\tICOPools.push(temp);\n\t\tprojectNames.push(_name);\n\t}\n}\n",
  "sourcePath": "/Users/2liang/Code/blockchain/Code/ProxyICO/contracts/ProxyICO.sol",
  "compiler": {
    "name": "solc",
    "version": "0.4.18+commit.9cf6e910.Emscripten.clang"
  },
  "schemaVersion": "1.0.1",
  "updatedAt": "2018-01-17T09:21:26.086Z"
}